:020000040800F2
:1000000000000220A1070008F1070008F10700081E
:10001000F1070008F1070008F107000800000000E0
:10002000000000000000000000000000F1070008D0
:10003000F107000800000000F1070008F1070008C0
:10004000F1070008F1070008F1070008F1070008B0
:10005000F1070008F1070008F1070008F1070008A0
:10006000F1070008F1070008F1070008F107000890
:10007000F1070008F1070008F1070008F107000880
:10008000F1070008F1070008F1070008F107000870
:10009000F1070008F1070008F1070008F107000860
:1000A000F1070008F1070008F1070008F107000850
:1000B000F1070008F1070008F1070008F107000840
:1000C000F1070008F1070008F1070008F107000830
:1000D000F1070008F1070008F1070008F107000820
:1000E000F1070008F1070008F1070008F107000810
:1000F000F1070008F1070008F1070008F107000800
:10010000F1070008F1070008F1070008F1070008EF
:10011000F1070008F1070008F1070008F1070008DF
:10012000F1070008F1070008F1070008F1070008CF
:10013000F1070008F1070008F1070008F1070008BF
:10014000F1070008F1070008F1070008F1070008AF
:10015000F1070008F1070008F1070008F10700089F
:10016000F1070008F1070008F1070008F10700088F
:10017000F1070008F1070008F1070008000000007F
:10018000F1070008F107000810B5054C237833B9D2
:10019000044B13B10448AFF300800123237010BD5A
:1001A0005004002000000000A00A0008084B10B511
:1001B0001BB108490848AFF300800848036803B939
:1001C00010BD074B002BFBD0BDE81040184700BF07
:1001D0000000000054040020A00A00084C04002085
:1001E0000000000080B487B000AF78603960002361
:1001F000FB600023BB6000233B6100237B616FE158
:1002000001227B6902FA03F3FB603B681A68FB6812
:100210001340BB60BA68FB689A4240F05E813B685D
:100220005B68022B03D03B685B68122B23D17B6990
:10023000DA087B68083253F822303B617B6903F0AF
:1002400007039B000F2202FA03F3DB433A691340D2
:100250003B613B681A697B6903F007039B0002FA64
:1002600003F33A6913433B617B69DA087B68083220
:10027000396943F822107B681B683B617B695B002E
:10028000032202FA03F3DB433A6913403B613B6804
:100290005B6803F003027B695B0002FA03F33A69CF
:1002A00013433B617B683A691A603B685B68012BCA
:1002B0000BD03B685B68022B07D03B685B68112B57
:1002C00003D03B685B68122B30D17B689B683B6135
:1002D0007B695B00032202FA03F3DB433A691340B4
:1002E0003B613B68DA687B695B0002FA03F33A69B9
:1002F00013433B617B683A699A607B685B683B614A
:1003000001227B6902FA03F3DB433A6913403B6144
:100310003B685B681B0903F001027B6902FA03F387
:100320003A6913433B617B683A695A607B68DB68D2
:100330003B617B695B00032202FA03F3DB433A690A
:1003400013403B613B689A687B695B0002FA03F3E8
:100350003A6913433B617B683A69DA603B685B68E2
:1003600003F08053002B00F0B880624A614B5B6C55
:1003700043F480435364604A7B699B08023352F81C
:1003800023303B617B6903F003039B000F2202FAD9
:1003900003F3DB433A6913403B617B68574A93425E
:1003A00037D07B68564A934231D07B68554A934296
:1003B0002BD07B68544A934225D07B68534A9342A2
:1003C0001FD07B68524A934219D07B68514A9342AE
:1003D00013D07B68504A93420DD07B684F4A9342BA
:1003E00007D07B684E4A934201D1092312E00A23C9
:1003F00010E008230EE007230CE006230AE00523A3
:1004000008E0042306E0032304E0022302E00123C2
:1004100000E000237A6902F00302920093403A69F7
:1004200013433B6134497B699B0802333A6941F8C5
:1004300023203C4B1B683B61BB68DB433A6913409C
:100440003B613B685B6803F48033002B03D03A695F
:10045000BB6813433B61334A3B691360314B5B68B4
:100460003B61BB68DB433A6913403B613B685B68B7
:1004700003F40033002B03D03A69BB6813433B619C
:10048000284A3B695360274B9B683B61BB68DB4351
:100490003A6913403B613B685B6803F48013002BAF
:1004A00003D03A69BB6813433B611E4A3B699360C2
:1004B0001C4BDB683B61BB68DB433A6913403B6123
:1004C0003B685B6803F40013002B03D03A69BB68F8
:1004D00013433B61134A3B69D3607B6901337B6102
:1004E0007B690F2B7FF68CAE00BF1C37BD4680BCEE
:1004F000704700BF00380240003801400000024051
:100500000004024000080240000C024000100240BB
:100510000014024000180240001C0240002002406B
:1005200000240240003C014080B487B000AF7860F6
:10053000396000233B610023FB600023BB60002384
:100540007B6182E001227B6902FA03F33B613A6836
:100550003B691340FB60FA683B699A4272D17B6841
:100560001A687B695B00032101FA03F3DB431A403D
:100570007B681A607B69DA087B69D9087B68083177
:1005800053F821107B6903F007039B000F2000FA4A
:1005900003F3DB4319407B68083243F822107B6881
:1005A0009A687B695B00032101FA03F3DB431A407D
:1005B0007B689A607B685A6801217B6901FA03F3C2
:1005C000DB431A407B685A607B68DA687B695B00B2
:1005D000032101FA03F3DB431A407B68DA607B698D
:1005E00003F003039B000F2202FA03F3BB601B48D6
:1005F0007B699B0819497A699208023251F82210E6
:10060000BA68D2430A40023340F823201449144BFD
:100610001A68FB68DB4313400B601149104B5A68A2
:10062000FB68DB4313404B600D490D4B9A68FB6838
:10063000DB4313408B600A49094BDA68FB68DB43F4
:100640001340CB607B6901337B617B690F2B7FF6A5
:1006500079AF00BF1C37BD4680BC704700380140F1
:10066000003C014080B485B000AF78600B467B80D1
:100670007B681A697B881340002B02D00123FB732F
:1006800001E00023FB73FB7B18461437BD4680BC9A
:10069000704700BF80B483B000AF78600B467B80AA
:1006A00013467B707B78002B03D07B687A881A8393
:1006B00002E07B687A885A8300BF0C37BD4680BC55
:1006C000704700BF80B483B000AF78600B467B807A
:1006D0007B685A697B885A407B685A6100BF0C3737
:1006E000BD4680BC704700BF80B485B000AF786065
:1006F0000B467B804FF48033FB607A88FB681343A2
:10070000FB60FA687B68DA617A887B68DA61FA688C
:100710007B68DA617B68DB69FB607B68DB6903F41B
:100720008033002B01D0002300E00123184614374A
:10073000BD4680BC704700BF80B582B000AF0346A5
:10074000FB80084B5A69FB881340002B06D0054AF2
:10075000FB885361FB88184600F006F800BF083795
:10076000BD4680BD003C014080B483B000AF03466D
:10077000FB8000BF0C37BD4680BC704780B500AF22
:100780004FF480510448FFF79DFF4FF400410348A8
:10079000FFF798FFF4E700BF000C024000000240A2
:1007A000DFF834D0002103E00C4B5B584350043198
:1007B0000B480C4B42189A42F6D30B4A02E0002336
:1007C00042F8043B094B9A42F9D300F013F800F0C9
:1007D000BBF8FFF7D3FF704700000220A00A000813
:1007E0000000002050040020500400206C04002071
:1007F000FEE7000080B400AF124A124B1B6843F0C2
:10080000010313600F4B00229A600E4A0D4B1B68C8
:1008100023F0847323F4803313600A4B0A4A5A602E
:10082000084A084B1B6823F480231360054B002201
:10083000DA60064B4FF000629A6000BFBD4680BC94
:10084000704700BF003802401030002400ED00E087
:1008500080B487B000AF00233B6100237B6102239B
:10086000FB600023BB6002237B60324B9B6803F07C
:100870000C033B613B69042B07D0082B09D0002BEC
:100880003FD12D4B2D4A1A603FE02B4B2C4A1A606A
:100890003BE0284B5B6803F480039B0DBB60254B5A
:1008A0005B6803F03F037B60BB68002B0DD0244ADC
:1008B0007B68B2FBF3F21F4B596847F6C0730B40DD
:1008C0009B0903FB02F37B610CE01C4A7B68B2FBD3
:1008D000F3F2184B596847F6C0730B409B0903FBB2
:1008E00002F37B61134B5B6803F440331B0C013351
:1008F0005B00FB607A69FB68B2FBF3F30E4A13609E
:1009000003E00D4B0D4A1A6000BF0A4B9B6803F0D1
:10091000F0031B090B4AD35CDBB23B61064B1A6840
:100920003B6922FA03F3044A136000BF1C37BD463B
:1009300080BC704700380240000000200024F40012
:1009400040787D010400002070B50F4E0F4D761BDE
:10095000B61018BF002405D0013455F8043B984761
:10096000A642F9D10A4E0B4D761B00F08BF8B6105B
:1009700018BF002406D0013455F8043B9847A6421E
:10098000F9D170BD70BD00BF4004002040040020BC
:100990004804002040040020024B13B1024800F03C
:1009A00005B8704700000000B9090008002301469F
:1009B0001A46184600F014B838B5074D074C2C1BE2
:1009C000A41005D0013C55F8043D9847002CF9D1FE
:1009D000BDE8384000F05CB84C040020480400201A
:1009E0002DE9F047254C2568D5F84841064688464C
:1009F00092469946C4B360681F2817DC431C76B141
:100A000004EB80050122C5F888A0D4F88811824043
:100A10001143022EC4F88811C5F808911ED0023087
:100A2000636044F820800020BDE8F087144B03B3D6
:100A30004FF4C870AFF300800446D0B1D5F8483108
:100A4000002780E88800C5F8484138460123C4F8EB
:100A50008871C4F88C71002EE1D0D1E7D4F88C11E4
:100A60000A43C4F88C21DAE705F5A674C5F84841B5
:100A7000C1E74FF0FF30BDE8F08700BF9C0A0008D7
:100A800000000000F8B500BFF8BC08BC9E467047E7
:100A9000F8B500BFF8BC08BC9E467047180000209F
:100AA0000024F40000000000000000000102030424
:100AB00006070809000000000000000004030020F1
:100AC0006C030020D40300200000000000000000A0
:100AD0000000000000000000000000000000000016
:100AE0000000000000000000000000000000000006
:100AF00000000000000000000000000000000000F6
:100B000000000000000000000000000000000000E5
:100B100000000000000000000000000000000000D5
:100B200000000000000000000000000000000000C5
:100B300000000000000000000000000000000000B5
:100B400000000000000000000000000000000000A5
:100B50000000000000000000000000000000000095
:100B600001000000000000000E33CDAB34126DE632
:100B7000ECDE05000B00000000000000000000009B
:100B80000000000000000000000000000000000065
:100B90000000000000000000000000000000000055
:100BA0000000000000000000000000000000000045
:100BB0000000000000000000000000000000000035
:100EE00099090008AD010008890100080000000010
:0400000508000000EF
:00000001FF
